S01D00007A776176655F736F635F6C65645F62756C625F3265702E73333708
S3150800600008100020AD7D0008C1F50208C1F5020898
S3150800601057230308C1F50208C1F50208C1F50208AD
S31508006020C1F50208C1F50208C1F502088190030806
S31508006030C1F50208C4CD030811900308A3BB0308E1
S3150800604085810008C1F50208C1F50208C1F50208F4
S31508006050C1F50208C1F50208C1F50208C1F5020832
S31508006060C1F50208C1F50208C1F50208C97600089B
S315080060707DF00208C1F50208C1F50208C1F502085B
S31508006080C1F50208C1F5020871070108C1F5020841
S31508006090C1F50208C1F502083D910008C1F50208DC
S315080060A0C1F50208C1F50208498B0008298B0008CA
S315080060B0C1F50208C1F5020801C40108B1CE0108FC
S315080060C03B5903083759030871C601085159030893
S315080060D03F59030881CE01084359030815CF010823
S315080060E051CF0108C1F50208C1F50208C1F5020839
S315080060F0C1F50208D91C0308C1F50208C1F5020852
S31508006100C1F50208C1F50208C1F50208C1F5020881
S31508006110C1F50208C1F5020849D90208C1F5020805
S31508006120C1F50208C1F50208C1F50208C1F5020861
S31508006130C1F50208C1F50208C1F50208C1F5020851
S31508006140C1F50208C1F50208C1F50208E9C7000849
S31508006150C1F50208C1F50208C1F5020875AD0108C6
S31508006160C1F50208C1F502082B590308315903087D
S31508006170F0B5114A114C124E00F00105E3695F07AC
S3150800618013D40DB9334213D103EA00078F4207D15E
S315080061900B4A1A40002A0CBF00206FF00100F0BD20
S315080061A0013AEBD16FF00200F9E74FF0FF30F6E75E
S315080061B06FF00100F3E700BF8096980000000350D7
S315080061C0020001000B4B70B5D96911F480310DD16D
S315080061D001244FF48072084E084DF46020462C6462
S315080061E01A61FFF7C5FF3464EC6070BD6FF00100FB
S315080061F0FBE700BF000003500010035000200350C7
S315080062004FF4803238B50E4B0E4C9A66E56941F666
S31508006210713315400122E3630B4B0021DA60022338
S31508006220606121202361FFF7A3FF10B92120FFF742
S315080062309FFF0122054BDA600DB10023E36338BDE9
S315080062400090005000000350001003500020035037
S3150800625070B5134C6061E3695B071ED40E4656F8A9
S31508006260043B8D18A361AE420BD1042300212120E3
S315080062702361FFF77DFF58B9BDE870402120FFF77D
S3150800628077BF08210846FFF773FF10B1042323617F
S3150800629070BD56F8043BA361E5E74FF0FF30F7E71A
S315080062A0000003502DE9F84315464FF48032184B89
S315080062B089469A6603F51C33DF690646174041F698
S315080062C07132DA63012203F58053DFF84C80DA6015
S315080062D055B9284601220F4BDA601FB10022A3F5F3
S315080062E00053DA63BDE8F88306F5005404EA0804A7
S315080062F0A41BAC4228BF2C46494622463046FFF727
S31508006300A7FF0028E6D12644A1442D1BE0E700BFDD
S31508006310009000500020035000E0FFFF000000003E
S31508006320000000000000000000000000000000005F
S3150800633000000000FF000100BF3903086C000100DF
S315080063400100FF00FF000000000000000000000040
S31508006350000000000000000000000000000000002F
S31508006360000000000200850002000000E72D030877
S31508006370000000000000000000000000000000000F
S31508006380E32D0308DF2D030802005900030000006F
S31508006390D9190108000000000000000000000000F4
S315080063A000000000551901080000000002008E00D8
S315080063B003000000F32E03080000000000000000A0
S315080063C000000000000000000000000000000000BF
S315080063D003002000020000001B3203080000000032
S315080063E0000000000000000000000000000000009F
S315080063F00000000003003300030000002126010806
S315080064000000000000000000DB3203080000000066
S31508006410452501084525010802005A00010000002B
S31508006420000000000000000000000000933303088D
S3150800643000000000000000000000000002007A00D2
S3150800644005000000192A01080000000000000000ED
S315080064500000000000000000052A0108052A0108BE
S3150800646002008700030000006136010800000000F2
S31508006470000000001D3403080000000000000000B2
S315080064800000000002007200020000002934030820
S3150800649000000000000000000000000000000000EE
S315080064A00000000000000000030060000400000077
S315080064B09F340308000000000000000000000000F0
S315080064C00000000000000000000000000300260095
S315080064D00400000055390108AF370308CF37030811
S315080064E0B9370308000000000F3803080938030805
S315080064F002007300010000008D3C01080000000046
S31508006500000000000000000000000000253C010813
S31508006510313C010802009F0000000000EF38030824
S31508006520000000000000000000000000000000005D
S3150800653000000000000000000200980000000000B3
S31508006540EF3803080000000000000000000000000B
S3150800655000000000000000000000000002006C00BF
S3150800656001000000453F010800000000000000008F
S315080065700000000000000000F53E0108F53E010895
S3150800658002008600030000004D41010800000000DB
S3150800659000000000000000000000000000000000ED
S315080065A00000000002005E0002000000FF39030838
S315080065B000000000000000000000000000000000CD
S315080065C0000000000000000033000000F8AF0020C3
S315080065D03300000088AF00203300000018AF002009
S315080065E033000000A8AE00203300000038AE0020BB
S315080065F033000000C8AD002026000000D4B00020FB
S315080066002600000068B00020FF000000000000001F
S3150800661018000000653A020822000000B537020893
S31508006620010000006376030805000000ED35020846
S3150800663004000000BD3C02080B00000015420208D9
S31508006640250000005137020824000000F136020830
S3150800665014000000C54802080C000000D9430208CF
S31508006660160000000D380208030000007D490208E4
S3150800667002000000C175030808000000553F020823
S315080066802A0000006D38020829000000F1390208C6
S3150800669002000000B9750308010000005D760308D2
S315080066A00300000089390208000000006976030823
S315080066B0013800D0FCE770472DE9F04F93B0CDE9DB
S315080066C00A32DDE91C530E9353EC102BCDE9080171
S315080066D0104619468DED060B1E9E27F0ABFD80B1C0
S315080066E0DDE906014FF0FF32C54B27F0CBFD40B977
S315080066F0DDE906014FF0FF326FF4801327F0A4FDA1
S3150800670070B1DDE908019DED060B0E9B1E96CDE9DD
S315080067101C53DDE90A3213B0BDE8F04F00F088B922
S315080067200022DDE90601002327F08EFD002800F08F
S315080067303381DDE906A303F1004BCBF30A5016F4C7
S315080067408063A0F2FF3008BF06250F9327F0A0FA52
S315080067509BA3D3E9002327F005FB9BA3D3E90023DA
S3150800676027F04AF9CBF31304894644F07F51804653
S315080067700022A44B504641F4401127F03BF994A35C
S31508006780D3E9002327F0EEFA02460B46404649466F
S3150800679027F032F927F080FD044627F079FA8EA310
S315080067A0D3E900238046894627F0DCFA0022964B77
S315080067B027F022F927F070FD89A3D3E900230746BD
S315080067C04946404627F0CEFA80463846894627F09D
S315080067D05FFA85A3D3E9002327F0C4FA02460B46DD
S315080067E04046494627F006F902460B46CDE90C23F2
S315080067F027F0B8FADDE90C23804689461046194683
S3150800680027F0FAF80022CDE91001804B40464946A8
S3150800681027F0D2FB00227E4B27F0EEF802460B4605
S315080068204046494627F0C8FB00227A4B27F0E4F891
S3150800683002460B464046494627F0BEFBDDE90C23D7
S315080068408046894600204FF0804127F0D3F802465B
S315080068500B464046494627F0CFF802460B46DDE987
S31508006860100127F0A9FB07F2FF3700226A4B27F031
S31508006870C3F800223B0527F075FA52465B46804668
S31508006880894627F0FFFC002840F08980CDE90C896D
S3150800689004F16303C72B34BF0427052731051BD52D
S315080068A053A3D3E900235046594627F0E1FC0028B4
S315080068B07FD051A3D3E900235046594627F0C4FC9C
S315080068C0002876D00027A542C6BF2C1B04F1FF3549
S315080068D000253C4646F480660E9B9F422CBF4FF02F
S315080068E00008A3EB070816F0020903D0002F18BF0B
S315080068F04FF000083CB1DDE90C235046594627F015
S315080069005BFB82468B46DDE906010022002327F061
S315080069109BFC10B10BF100439B46DDE9080126F408
S315080069200063CDE90183DDE90A324BEC10AB009533
S3150800693000F07EF802465FB3DDE9091316F0200F72
S3150800694000F10105089E0CBF65204520B047DDE92A
S3150800695008010523002205930A23002CCDE90232FB
S3150800696007F1FF374FEAD473B8BF64422A4601934A
S3150800697004970A9B00942EF078FA0246B9F1000FA4
S3150800698006D00B9BC41A0B9B1A190E9BA34245D81B
S31508006990104613B0BDE8F08FDDE906ABCDE6002260
S315080069A0404649461A4B27F007FB013CCDE90C0146
S315080069B06EE7002D90D00F9B002B8DD0013D8BE705
S315080069C0FB799F501344D33FB3C8608B288AC63FD0
S315080069D061436F63A787D23F71A379094F930A4032
S315080069E01655B5BBB16B0240EF39FAFE422EE63FAB
S315080069F02D431CEBE2361A3F0000000080842E412E
S31508006A00FFFFEF7F0000F83F0000E03F00002C404A
S31508006A1000002440000018400000F03F2020DDE977
S31508006A200913089DA8470134ADE700BF0000000020
S31508006A302DE9F04F5BEC10AB97B0CDE90501DDE928
S31508006A402057CDE90723504652465B465946229EB3
S31508006A5027F0F0FB70B90323CDE902760193B04B1A
S31508006A600093DDE90501DDE907232EF01EF917B0CD
S31508006A70BDE8F08F4FF0FF326FF480135046594649
S31508006A8027F0E2FB28B10423CDE902760193A54B52
S31508006A90E6E74FF0FF3250465946A34B27F0F2FB84
S31508006AA068B1A24A06F00403002B08BF0322A04BD4
S31508006AB01CBF13460422CDE902760192D0E7504660
S31508006AC093A3D3E90023594627F0DCFB38B992A3F0
S31508006AD0D3E900235046594627F0B6FB68B1DDE9ED
S31508006AE00723DDE905014BEC10ABCDE921762095AE
S31508006AF017B0BDE8F04FFFF7DFBD00220023504670
S31508006B00594627F0A1FB002800F09A805B465246BA
S31508006B100020002126F06EFF012382468B4609934A
S31508006B2016F4806400F08E80092D40F28E800024D1
S31508006B3030210EABA5F109020134202C03F8011B04
S31508006B40A5EB040901D09442F6D15946504627F0E0
S31508006B50A3FB784B054603EBC90393ED007B8DED4C
S31508006B600A7B27F095F802460B465046594626F00A
S31508006B7041FFDDE90A2327F0F5F802460B46CDE981
S31508006B800C2327F0B1FB804627F072F802460B4625
S31508006B90DDE90C0126F02EFF02460B46CDE90C2353
S31508006BA00022654B27F06EFB002851D008F101083A
S31508006BB0404627F05DF802460B46DDE90A0127F054
S31508006BC04DFB10B14FF000080135B9F1000F50D157
S31508006BD0284627F05DF802460B465046594626F0E9
S31508006BE009FF0022544B8046894627F02DFB30B119
S31508006BF0002240464946504B27F044FB10B1E807AF
S31508006C0000D501350A210EAB1A19202C0AD095FB9E
S31508006C10F1F001FB1055303502F8015B01340546E9
S31508006C200028F2D106F00302012A57D1002F55D0C9
S31508006C30099A12B916F00C0F00D0013F302245E030
S31508006C4009906DE74FF006097FE7A94600247CE71F
S31508006C500022DDE90C01384B27F0F6FA0028B4D1FA
S31508006C60B8F1000F02D018F0010FAED008F10108F4
S31508006C70ABE70A210EAB2344202C0ED0B8FBF1F06B
S31508006C8001FB1082B8F1090F02F1300209F1FF3950
S31508006C9004F1010403F8012B11D83021A1440EAAEE
S31508006CA0202CAFD0A14504F101030AD11C4609F1F5
S31508006CB058030DEB03092E2309F8203CA2E780466A
S31508006CC0DAE7A1541C46EBE71A550134A74205D961
S31508006CD0202CF9D1CDE902760194C1E6202CF9D011
S31508006CE0099A3AB12D2104F158026A4402F8201C87
S31508006CF00134EFE7710704D504F158022B216A44E1
S31508006D00F4E73207E6D504F1580220216A44EDE794
S31508006D100000000065CDCD410000000065CDCDC165
S31508006D20A9D40308ADD40308FFFFEF7FA0D4030856
S31508006D30A5D40308B8D403080000E03F000000000B
S31508006D40F7B50446007831F0B1FD18B1E3780BB118
S31508006D5032F022F94E482EF05BFE002025F062F94B
S31508006D604C4B002118604C4816F074F94B4F84467A
S31508006D70386000B9FEE74A4E0FCC35460FC50FCC32
S31508006D800FC5102294E80300464B85E8030083F8F4
S31508006D901F23012183F82023604683F8212383F8E3
S31508006DA0222383F8232383F8242383F8252383F8CF
S31508006DB0262383F8282383F8272383F84A2383F88E
S31508006DC04B2383F8472383F81E230FF037F825F063
S31508006DD023FCB6F90A3000284AD0C82B01DDC8239F
S31508006DE073817378304A022B28BF02232F49137206
S31508006DF038684FF4807300222EF042FF26F0F8F828
S31508006E000122386811462EF0C2FE1FA3D3E90023DB
S31508006E10CDE9002338684FF0FF324FF0FF332EF0EC
S31508006E20B4FE96F82000224C003818BF012026F040
S31508006E30F3F8B6F90820B6F906103379307826F053
S31508006E4099F81C4B5B68187825F0FEFB0122386818
S31508006E50114631F0CFFF00221546174925F0C0FA32
S31508006E60904209D833F000FE144B186003B0F0BD09
S31508006E708C2BB6DD8C23B3E701F8015B24F8025BA3
S31508006E800132EBE7AFF30080088D015522020000BE
S31508006E90690345EC1C9500208CB400209CB40020A6
S31508006EA03C7F002000E100E0C47E0020C47D002075
S31508006EB0EE950020A0B400203FA9002018950020D8
S31508006EC00348044B834202D0034B03B1184770476B
S31508006ED0CCB50020CCB5002000000000064B0749C1
S31508006EE0C91A891048BF0131491003D0044B0BB1A8
S31508006EF001481847704700BFCCB50020CCB5002024
S31508006F000000000010B5064C237843B9FFF7D8FFF8
S31508006F10044B13B10448AFF300800123237010BD5E
S31508006F20F895002000000000943E040808B5054BBB
S31508006F301BB105490548AFF30080BDE80840FFF7D7
S31508006F40CDBF00BF0000000020190020943E0408B1
S31508006F50A3F5803A704700BF174B002B08BF134BA9
S31508006F609D46FFF7F5FF00218B460F461348144A46
S31508006F70121A27F01AFF0E4B002B00D098470D4B1C
S31508006F80002B00D098470020002104000D000D4872
S31508006F90002802D00C48AFF3008000F013F9200057
S31508006FA0290028F014F800F011F800BF00000800C6
S31508006FB00000000000000000081000200810002053
S31508006FC0A0AB0020000000000000000008B5064B3A
S31508006FD0044613B10021AFF30080044B1B6803B1CC
S31508006FE0984720462AF0D7FE00000000701A0020B5
S31508006FF0002310B504468360818119464366C28121
S3150800700008228361C0E90033C0E904335C3027F005
S31508007010CCFE0D4B246263620C4BA3620C4BE362FD
S315080070200C4B23630C4B9C4206D003F16802944236
S3150800703002D0D0339C4205D104F15800BDE8104077
S3150800704027F0BBBE10BD00BF25ED020847ED0208BC
S315080070507FED0208A3ED020838190020024A034909
S31508007060034827F041BE00BF6CAD0020C7EE0208FA
S315080070707CAD002041680C4B994210B5044601D0FE
S3150800708027F021FFA168094B994202D0204627F034
S315080070901AFFE168064B994204D02046BDE8104025
S315080070A027F011BF10BD00BF38190020A019002015
S315080070B0081A002010B50B4B04210B4C0B4A20462E
S315080070C01A600022FFF794FF04F1680001220921E3
S315080070D0FFF78EFF04F1D00002221221BDE810400E
S315080070E0FFF786BF701A0020381900205D70000867
S315080070F0014827F063BE00BFF9950020014827F034
S315080071005EBE00BFF995002010B50446FFF7F0FFF4
S31508007110236A1BB1BDE81040FFF7F0BF044B23629A
S31508007120044B1B68002BF5D1FFF7C4FFF2E700BF3D
S3150800713075700008701A002038B50023054D0446FE
S3150800714008462B602AF025FE431C02D12B6803B1A2
S31508007150236038BD741A002038B50446064D084623
S31508007160114600222A601A462AF01BFE431C02D149
S315080071702B6803B1236038BD741A002038B504465D
S31508007180064D0846114600222A601A462AF00BFECA
S31508007190431C02D12B6803B1236038BD741A002042
S315080071A038B50446064D0846114600222A601A4696
S315080071B02AF007FE431C02D12B6803B1236038BDB1
S315080071C0741A002070B50D4D00260D4C641BA410D2
S315080071D0A64209D10B4D00260B4C35F081FB641BEA
S315080071E0A410A64205D170BD55F8043B0136984750
S315080071F0EEE755F8043B01369847F2E7C4B5002098
S31508007200C4B50020C4B50020C8B5002013B50120B8
S3150800721024F0E6FD0DF092F804460DF1070016F08D
S315080072200BFC9DF807002BF0A1FD68B19DF807300F
S3150800723023720DF087F8022203460121054830F033
S3150800724065F9002002B010BD04F108002EF022FEF8
S31508007250EFE700BF17EF020838B5032000F0C8FBB8
S3150800726060B1134C134920682AF079FD27F020FFF6
S3150800727027F01FFF104920682AF071FD0F4828F0F3
S3150800728061FB0446032000F0B3FB78B1084D0949B9
S3150800729028682AF064FD27F00BFF27F00AFF22462C
S315080072A028680749BDE838402AF059BD38BD00BFEF
S315080072B0241F002008C903080DC9030898B1002037
S315080072C022C90308022809D841B1012303EB80002B
S315080072D0034BC2181B5A0B8093788B70704700BFFC
S315080072E0FD950020022810B509D841B101230C8864
S315080072F003EB8000024B1C52C2188B78937010BDAA
S31508007300FD95002002289CBF014B03F8201070470A
S31508007310FD950020F8B5431E012B064657D82CF0DC
S315080073209AFA2B4D0446AB5D63B9012E3DD1294827
S3150800733001F006FD284801F003FD284801F000FD8C
S315080073400123AB556422264823B210F8267000EBB9
S31508007350860041788578C47811FB07F115FB07F597
S3150800736014FB07F4514355435443C3EB0323B1FBC2
S31508007370F3F1B5FBF3F5B4FBF3F4012EC9B2EDB2A4
S31508007380E4B21AD1511A1348C9B228F0CEFAC5F197
S3150800739064011148C9B228F0C8FAC4F164010F485B
S315080073A0C9B2BDE8F84028F0C0BA0E4801F0C8FCDA
S315080073B00D4801F0C5FC0D48C0E70A4828F0B5FAA3
S315080073C02946094828F0B1FA21460848E9E7F8BDF0
S315080073D0FA95002098B1002090B1002088B10020CD
S315080073E0FD95002080B1002078B1002070B1002002
S315080073F000487047C8AD0020034A18B1431E02EB87
S31508007400430070471046704735C90308004870475F
S3150800741068B00020114B00B51868114B114A186066
S31508007420114B8BB01360114A00210092104A126862
S31508007430CDE901230F4B4FF4C86203930E4B049317
S315080074400E4B05931923CDE906233223CDE90813FC
S31508007450694607F061F90BB05DF804FB4CB10020F2
S31508007460A4270020A027002040B10020FFCC030855
S31508007470981D0020341D0020381D0020081000200B
S3150800748010B52A4C03F0AAFF04F026F9236F012051
S3150800749023F0070343F00303236704F047F9244B5B
S315080074A001219B6A3E20DB015EBF4FF48032214BEF
S315080074B09A62D4F8203123F0070343F00203C4F894
S315080074C02031D4F8283123F0070343F00203C4F827
S315080074D02831D4F8403123F0030343F00203C4F8FB
S315080074E04031D4F8603123F0030343F00203C4F8B3
S315080074F0603103F0CDFCD4F84032002023F00303BA
S3150800750043F00203C4F84032D4F8003223F00703EC
S3150800751043F00203C4F80032D4F8083223F0070314
S3150800752043F00203C4F8083210BD00BF00800050C3
S315080075300040005A0060005A4FF480302549264A18
S315080075404B6E10B55066486E4FF000414AF6CD3482
S315080075505166224903F480334A6C0C6402F0010236
S315080075604C6BE407FCD401241D494C60A1F500517D
S315080075700C6BE407FCD50AB11A4A0A640028A2BFB4
S315080075804FF00041184A51661BB94FF48032164B2A
S315080075905A6607F007FF00F03BFB07F099FD2AF053
S315080075A08FFB07F0E5FD2AF095FB07F0A9FDFFF72D
S315080075B067FF08F083FB00F01FFB00F0A5FD32F023
S315080075C029FD24F069FA03F0B5F8BDE8104008F083
S315080075D013BF00BF008000500090005000400950C3
S315080075E0006009503254FFFF00A00050064B1B688C
S315080075F01A7A022A04D812B11B68044A1360704723
S31508007600032AF9D0704700BF50B10020981D00200A
S3150800761030B5184D8FB006AC0FCD0FC495E80F00E6
S3150800762084E80F000E2200210DF10A0027F0BDFBA9
S315080076304FF48012104B6946CDE900230B238DF8D1
S3150800764008300C238DF809300C4B06AA0393202327
S31508007650049301230A488DF814300A4B07F0CAFF31
S31508007660044600214FF4E13027F09BFF20460FB077
S3150800767030BD00BF18CD03083C00015B0996002009
S31508007680D81E00209C1D002029B9074B18680368DE
S315080076904BB108F0D1BA022905D8034B186803681C
S315080076A00BB12AF0DBBD704764B1002008B5044968
S315080076B0044808F079FEBDE80840FFF7A9BF00BFF7
S315080076C068B10020001F002001482AF061BB00BFF6
S315080076D0D81E002030B542F2107500248DB06946D8
S315080076E0154800958DF8044001F09AFA02A9134846
S315080076F002958DF80C4001F093FA04A910480495F8
S315080077008DF8144001F08CFA06A90E4806958DF8F6
S315080077101C4001F085FA08A90B4808958DF8244005
S3150800772001F07EFA0AA909480A958DF82C4001F05D
S3150800773077FA0DB030BD00BF98B1002090B1002097
S3150800774088B1002080B1002078B1002070B10020F7
S3150800775008B5044828F021F8BDE80840024828F092
S315080077601CB800BF50CD030838CD0308014828F0DF
S3150800777093B800BF68CD030870B5104D286827F088
S315080077802AFE0446C0B90E4E306828F00BF80128C8
S3150800779003D134F0F7F90B4B1860706828F002F83B
S315080077A0012803D134F0EEF9064B98600022064B07
S315080077B028681A7027F023FE204670BD101F002087
S315080077C0A0B10020141F002079B500200021164A18
S315080077D000B5116051600422144B89B019705970B4
S315080077E0134B01A81A711A7310221960996027F0B1
S315080077F0DCFA29238DF804300E4B4FF4806202938D
S315080078000D4B0E49039302238DF810300C4B01A83B
S31508007810CDE905230823079327F08CFD08B12CF042
S315080078205EF909B05DF804FB081F002029960020C0
S31508007830141F00204578000881F00208101F002058
S3150800784005000400F0B5214E85B0306801AA02A9EA
S3150800785027F022FE0446002835D14FF4C870029F4F
S315080078609DF80C5032F04EFA874228D340F2DC508D
S31508007870029C32F047FA844223D341F28830029CB4
S3150800788032F040FA844234BF02200320104C04EB45
S31508007890C50528712179042904D000202CF021F986
S315080078A004232371217B042904D001202CF019F923
S315080078B004232373306827F0A2FD05B0F0BD2046E7
S315080078C0E4E70120E2E72CF00AF9F6E7101F0020AA
S315080078D0141F0020194BF7B51C7884B9184B1A6881
S315080078E0904203D05B68984209D1012427F05AFFD9
S315080078F00128144D05D134F045F945F8340003B094
S31508007900F0BD34F03FF955F834308DF80440C71A05
S315080079102820009732F0F6F9874204D805EBC4050B
S315080079202B79052BEBD1084B08226946186827F0F6
S3150800793078FD0028E3D02CF0D2F8E0E779B50020EE
S31508007940A0B10020141F0020101F002038B5D0E970
S31508007950023253F82230074D1C78012C28BF012427
S315080079602B5D33B934F00EF9034B43F82400012399
S315080079702B5538BD29960020081F00202DE9F04117
S31508007980D0E9023253F82230DFF860801C78012CE7
S3150800799028BF012418F80460012E12D134F0F2F839
S315080079A00027114B08F8047053F82450451B4FF470
S315080079B0C87032F0A7F9A84205D9394620462CF0F6
S315080079C090F8BDE8F08140F2DC5032F09BF9A8420D
S315080079D001D93146F2E741F2883032F093F9A842EC
S315080079E08CBF02210321E9E7081F00202996002001
S315080079F00B4B02461B7883B10A4B1B78834234BF74
S31508007A0000200120084B1B7833B1084B1B78134123
S31508007A1013F0010F08BF002070470120F2E700BFEE
S31508007A207CB500207BB500202B9600207AB5002077
S31508007A30012208B5074B1A700022074B1A70042258
S31508007A40064B1A701F22064B1A7007F02BFD054BC2
S31508007A50186008BD7CB500202B9600207BB5002059
S31508007A607AB50020241F002073B5846905462CBB0F
S31508007A7008202AF02AFCA86160B104604460214607
S31508007A804FF6FF70AE6934F075FD706028B9284668
S31508007A9027F06CFB192002B070BDAA6801962B79F5
S31508007AA007490848CB5CC2F34F02009321462B4690
S31508007AB034F000FE0128EAD12046ECE71220EAE776
S31508007AC080CD0308B57B0008014827F00DBE00BF2E
S31508007AD0281F0020037970B59B07054602D41D4B65
S31508007AE01C6844BB1C202AF0F0FB044680B32B7CA0
S31508007AF0012603712B7995F82020C3F340034375BB
S31508007B000023027583608361036140F80C3B27F00C
S31508007B10EBFD95F820300BB1012323756B69A2683C
S31508007B2029469A4238BFA36004F10C0027F0E3FD0A
S31508007B304EB9002070BD667D1EB922792B7C9A420B
S31508007B40E7D02468CDE72146024827F0D4FDF0E7C0
S31508007B501920EFE7281F00200D4B70B51C6804B9E3
S31508007B6070BDA3690BB12468F9E7E3682046236171
S31508007B70FFF77AFF06460028F5D0E568002DF2D013
S31508007B80EB6813B13146002098472D68F6E700BF29
S31508007B90281F0020064B0246186800B97047C368BC
S31508007BA00BB90068F9E79342F8D01B68F8E700BFFD
S31508007BB0281F002010B5044627F099FB40B90D4B45
S31508007BC01A78A2B901221A7027F096FB27F008FA4C
S31508007BD0204627F02AFB0028FAD0204627F091FBFA
S31508007BE00028F5D08368002BF2D09847F0E727F0F5
S31508007BF083FBEDE72C96002008B504482AF062F8C6
S31508007C0027F0F7F9BDE8084000F008B810D20308D5
S31508007C1001482AF057B800BF10D203082DE9F04FE3
S31508007C20544E97B0354609AC0FCD0FC42B6806F1F4
S31508007C30140523600EAC0FCD0FC495E80F00DFF8CE
S31508007C404C8184E80F004C482AF03CF840462AF05C
S31508007C5039F84FF48073494FADF83C30484B3846F5
S31508007C600B9309A90EAB0D9304F018F80421B6F886
S31508007C7034B00DEB01000122ADF804B000F098FD18
S31508007C80B6F836A00022012102A8ADF808A000F037
S31508007C908FFDB6F838900122042103A8ADF80C90A0
S31508007CA000F086FD758F0122042104A8354CADF835
S31508007CB0105000F07DFD344B4FF44870C4F8F8348A
S31508007CC04FF00213C4F8F434A3F58033C4F8FC3437
S31508007CD01C23C4F8E43408F067FD08A8ADF8205062
S31508007CE000F0C4FD142008F05FFD08A8ADF8205088
S31508007CF000F092FD232008F057FD08A8ADF82050A3
S31508007D0000F0B4FDB921384628F00BFC08A8ADF8F8
S31508007D10205000F081FD002205A81146ADF814B0E8
S31508007D2000F046FD002206A81146ADF818A000F09E
S31508007D303FFD0122002107A8ADF81C9000F038FD90
S31508007D400122002108A8ADF8205000F031FD384680
S31508007D5003F004FF00234046C4F8E434C4F8F834BA
S31508007D60C4F8F434C4F8FC3429F0AFFF17B0BDE802
S31508007D70F08F00BF88CD030810D2030800000A5010
S31508007D80E070720000C003500200030014D203081A
S31508007D900348044A0449121A921027F012BC00BF7D
S31508007DA07061000830630008A0AB002008B500F039
S31508007DB02FF8FFF7EDFF124B12498B4212D3002022
S31508007DC0114B12498B4218D3FFF7C6F8186850F8BA
S31508007DD02240586840F82240013298688242F5D31A
S31508007DE00C33EAE70022F8E71C6844F8220001325F
S31508007DF05C68A242F8D30833E4E70022F8E700BF3C
S31508007E009C3E0408A83E0408A83E0408A83E0408A8
S31508007E104FF48041124B134A70B59A60D3F8882004
S31508007E20114D42F47002C3F88820104A05F5005433
S31508007E3091664FF0FF3222660D4A62660222C3F847
S31508007E40D020BFF34F8FBFF36F8F4FF4403600201B
S31508007E5007F0F0FA0020E66007F0D0FA2E6170BD50
S31508007E6000ED00E00060000800800044009000502B
S31508007E707FFF7F01054B1860054B1B6F03F0070357
S31508007E80032B01D131F02EB9704700BFB4B10020E1
S31508007E90008000504FF000639B6A03F17842B2F508
S31508007EA0C04F03D21968064A914203D000230370D3
S31508007EB083607047012202709A689B694260F7E7FF
S31508007EC007B0CD5E024B034A1A6029F007BF00BF10
S31508007ED00000002002020FF073B54F4B04461A78D3
S31508007EE01AB102221A7002B070BDCDE9002200282C
S31508007EF0F9D001261E7033F0DBFC484D484B18605C
S31508007F0011F050FE2B785BB902F014FC40B94548D5
S31508007F100823454A4549006802F0A6FA00B92E70BA
S31508007F20434B5A6E62619B6E424AA3614FF480438B
S31508007F309366414B5968E16140499960196E216021
S31508007F40596E6160D3F87011A160196CE160596CC3
S31508007F5021613B49086C1864496C596401215166D2
S31508007F601B6E9C0441D5374AD368D807FCD4364BD8
S31508007F701A68531C3ED04FF480139340334A136655
S31508007F804FF400730426314C2666236627F07CFBE3
S31508007F9001300DD027F078FB40F20113984207D044
S31508007FA04FF4005323664FF480432366C4F8706188
S31508007FB00823264C684623664FF4805323664FF001
S31508007FC0006323664FF4000301A9636627F006FBE6
S31508007FD0009B2366019B63662B78002B83D0124B8C
S31508007FE01A6822665B6863667DE7194AD368D9070B
S31508007FF0FCD4BCE7174B1B78002BC1D14FF4007299
S315080080000C4B5A6603F5A6235B68002BB8D14FF4D0
S3150800801080120E4B1A66B3E72E9600202F96002084
S315080080204C1F0020DCB10020501F00200071080002
S3150800803000800050009000500080004455CEAC00EF
S3150800804000C0005400000440B8B10020009000446D
S31508008050000004502D96002070B5224D04462E7857
S31508008060012E02D001232B7070BD0028FCD027F00A
S315080080700BFB01300BD027F007FB40F201139842A7
S3150800808005D0194B194A5E66D368DE07FCD4226808
S31508008090174B1A6662685A66A268C3F87021E268C6
S315080080A01A6422695A64E269D00744BF00229A60BA
S315080080B0104B1A68013207D10F4A127822B90F49B4
S315080080C04968C90748BF1A6062690D4B5A66A269B2
S315080080D09A6611F06FFD0B4B186833F0E4FB00232A
S315080080E0C1E700BF2E960020009000400000044023
S315080080F000800044B8B100202D96002000C005502D
S31508008100008000504C1F0020F8B54FF00066B36A97
S3150800811003F17842B2F5C04F26D21A68144B9A4238
S3150800812022D1144D2C7814F0FD0402D000242046E8
S31508008130F8BD4FF480371048FFF7CEFE204607F00B
S3150800814079F90E4B2046DF6007F058F90C4B1F6192
S31508008150B36ADB69984704460748FFF77DFF002C9A
S31508008160E5D101232B70E1E74FF48174DFE700BF07
S3150800817007B0CD5E2D9600202C1F002000A00044DD
S315080081800090004413B5204B1B7803B9FEE7002383
S315080081901E4CCDE900336A4608231D49206802F0C3
S315080081A063F9F8B91B4AD2F84031D2F840211F2B9F
S315080081B04FF0010311D9203A9340019A1A430192CC
S315080081C008236A461249206802F00AF9124B134A34
S315080081D01A6029F083FD02B010BD9340009A1A4335
S315080081E00092EDE72D28F1D10A4AD2F84031D2F8AB
S315080081F040211F2B4FF0010385BF203A934093403F
S31508008200019398BF0093DBE72E960020DCB100208F
S315080082100071080000800044000000200B020FF0E7
S31508008220B1F5002F0BD800F17843B3F5002F06D827
S31508008230044B084498428CBF002001207047002058
S31508008240704700BF0000080838B54FF00065AB6AF4
S31508008250044603F17842B2F5C04F12D21B6B03F104
S315080082607843B3F5C04F0CD20648FFF735FEAB6A24
S3150800827020461B6B5B689847BDE838400148FFF706
S31508008280EBBE38BD581F0020F8B54FF00067BB6A33
S31508008290164603F17842B2F5C04F04460D4611D290
S315080082A01B6B7BB10948FFF717FEBB6A20461B6BA1
S315080082B0324629465B6A984704460448FFF7CCFECF
S315080082C02046F8BD4FF40174FAE700BF581F002096
S315080082D070B54FF00066B36A044603F17842B2F50A
S315080082E0C04F0D4614D21B6B03F17843B3F5C04F4C
S315080082F00ED20948FFF7F0FDB36A20461B6B2946E4
S315080083009B6A984704460448FFF7A6FE204670BDB8
S315080083104FF40174FAE700BF581F0020F0B58FB07C
S31508008320044601A80E461546FFF78EFF9DF80C3049
S31508008330012B1AD129462046FFF772FF98B940F259
S31508008340024420460FB0F0BDE25801322AD1043368
S315080083509D42F9D82A463146204600F0C5F800283D
S31508008360EDD00024EDE70023F2E74FF00067BB6A83
S3150800837003F17842B2F5C04F17D21B6B03F178436D
S31508008380B3F5C04F11D20A48FFF7A6FDBB6A2A46C5
S315080083901B6B314620469B6B984704460448FFF7FB
S315080083A05BFECEE740F20344CBE740F20114C8E790
S315080083B0581F002070B58EB0044601A80D46FFF779
S315080083C043FF9DF80C30012B1ED144EA0503C3F385
S315080083D00C03002B34D129462046FFF721FF20B98C
S315080083E040F2024420460EB070BD2544204604F5EE
S315080083F0005400F06BF8AC4202D00028F6D1EFE743
S315080084000028EDD00024EDE74FF00066B36A03F1CB
S315080084107842B2F5C04F16D21B6B03F17843B3F519
S31508008420C04F10D20948FFF757FDB36A29461B6BA0
S315080084302046DB6B984704460448FFF70DFED1E754
S3150800844040F20444CEE740F20114CBE7581F00205F
S3150800845030B591B0044603A8FFF7F6FE9DF8143030
S31508008460012B10D1069BA34228D9204601A927F043
S31508008470D1F8044620B9DDE90101FFF79BFF044660
S31508008480204611B030BD4FF00065AB6A03F1784263
S31508008490B2F5C04F15D21B6B03F17843B3F5C04F45
S315080084A00FD20948FFF718FDAB6A20461B6B5B69BC
S315080084B0984704460448FFF7CFFDE1E740F2014438
S315080084C0DEE74FF48174DBE7581F00204FF4803253
S315080084D008B5044B9A6634F00FFAB0FA80F04009F2
S315080084E008BD00BF00900050134610B562B10343A3
S315080084F09B070BD14FF48034054B9C6634F000FA89
S31508008500B0FA80F0400910BD0120FCE70020FAE728
S3150800851000900050BFF34F8F0549064BCA6802F416
S31508008520E0621343CB60BFF34F8F00BFFDE700BF88
S3150800853000ED00E00400FA0570B5D0B1C9B10E4EE1
S31508008540431E013913F8014F2046325D02F003023B
S31508008550012A11F8012F08BF04F12000B55C05F0C7
S315080085600305012D08BF2032801A01D1002CE9D15C
S3150800857070BD0120FCE700BF923D040840B1054AE2
S315080085801378012B04D80370013300201370704749
S31508008590012070473096002030B5056887B0AB8853
S315080085A004461848ADF80C3029F08CFB002201214E
S315080085B003A800F0FDF80DF10B0103A800F0AEF9D1
S315080085C09DF80B3083F001032B70AB79022B15D184
S315080085D04FF0FF330022CDE9043304A90A4B009477
S315080085E003A800F04DFA049B009401330CBF042243
S315080085F00122054B05A903A800F0BEF9002007B023
S3150800860030BD00BF10D20308AFF70208002307B534
S315080086102948019329F056FB4FF44073012204219F
S315080086206846ADF8003000F0C3F80122234B052058
S31508008630C3F8442401A933F0F3F9002839D1204BB3
S31508008640D3F8F02042F00102C3F8F020D3F8FC205A
S3150800865042F08072C3F8FC201A4AA3F55D431A60FB
S31508008660019B194A03F5D52303F2FC43B3FBF2F346
S31508008670164A013B13610223C2F8F0304FF48073A7
S31508008680C2F804334FF06043114AC3F8B02F114AB9
S31508008690C3F8802ED3F8002E42F48072C3F8002E59
S315080086A0FF2283F82020D3F8002E22F48072C3F824
S315080086B0002E03B05DF804FB10D2030800D0035067
S315080086C000ED00E0FF030040F8590D00000004E04B
S315080086D055CEACC5090001004FF06043D3F8802E93
S315080086E030B5D20715D501240B4D8440D5F8FC20AA
S315080086F042F08072C5F8FC20D3F8002E2243C3F856
S31508008700002E53F82020002AF0D003F8201000206D
S3150800871030BD1120FCE700BF00ED00E02DE9F04177
S3150800872004460C254FF00108124E0CB314F0010054
S315080087300BD0002024F0010405FB00625768002FC7
S31508008740F3D09168C0B2B847EFE722460130202837
S315080087504FEA520201D0D307F8D508FA00F20F28DB
S3150800876024EA0204E8D9103805FB0062B432E5E7CA
S31508008770BDE8F081781F002008B50C4829F0A2FA58
S315080087801A2006F049FE28B11A2006F053FE1A20D0
S3150800879006F034FE1B2006F03FFE28B11B2006F02B
S315080087A049FE1B2006F02AFE002008BD10D2030849
S315080087B02DE9F0410E461746054618B30F2923D86A
S315080087C00378E3B1013BDBB2022B1DD8104A32F81D
S315080087D013306A78D340DB0716D50E4BD3F810430F
S315080087E0A4B933F065F880463A462846314603F080
S315080087F015FE404633F057F82046BDE8F08140F2B2
S31508008800FF73E6E72224F7E72124F5E70224F3E7D6
S3150800881014CE030800C0035010B50446E8B1037827
S31508008820C3B1013BDBB2022B19D80E4A32F813301A
S315080088306278D340DB0712D533F03AF80122637821
S3150800884021789A4030235943074B5A5033F02BF876
S31508008850002010BD40F2FF73EAE72220F9E7212045
S31508008860F7E700BF14CE030840D0035010B50446FE
S31508008870E8B10378C3B1013BDBB2022B19D80E4A23
S3150800888032F813306278D340DB0712D533F010F88C
S315080088900122637821789A4030235943074B5A506E
S315080088A033F001F8002010BD40F2FF73EAE72220FA
S315080088B0F9E72120F7E700BF14CE030840E003508C
S315080088C038B50D46044618B311B30378EBB1013B2E
S315080088D0DBB2022B1ED8104A32F813306278D34026
S315080088E0DB0717D532F0E4FF30222378534303F130
S315080088F0A04303F570331B6C6278D34003F0010381
S315080089002B7032F0D0FF002038BD40F2FF73E5E748
S315080089102220F9E72120F7E714CE030838B50D46DB
S31508008920044618B311B30378EBB1013BDBB2022B53
S315080089301ED8104A32F813306278D340DB0717D5B1
S3150800894032F0B6FF30222378534303F1A04303F5F0
S3150800895070335B6C6278D34003F001032B7032F0FE
S31508008960A2FF002038BD40F2FF73E5E72220F9E7B1
S315080089702120F7E714CE03082DE9F0410D461646E7
S3150800898098460446002852D0002950D00378002B78
S3150800899043D05A1ED2B2022A03D9FF2B08D021206F
S315080089A043E0244B33F812304278D340DA07F6D541
S315080089B0022E01D9042EF2D132F07AFF2378074627
S315080089C0FF2B05D032462046296803F06DFD286046
S315080089D02B68013309D12378FF2B06D1164B607813
S315080089E0D3F8241427F0B9FE286029684B1C18D040
S315080089F00C23124A03FB0122069BC2F804809360EB
S31508008A002378FF2B04D001230D4A8B40C2F8243467
S31508008A10384632F048FF002007E040F2FF734278FC
S31508008A20C3E7384632F03FFF2D20BDE8F08122200B
S31508008A30FBE700BF14CE030800C00350781F0020D0
S31508008A4000D003500F2810B5044613D832F030FF73
S31508008A500123094AA340C2F82034C2F824340C2260
S31508008A60064B02FB04330024C3E9014432F01BFF22
S31508008A70204610BD2120FCE700E00350781F0020A7
S31508008A802DE9F0410D4690461F460446002843D07E
S31508008A90002941D00378002B34D0591EC9B20229C7
S31508008AA003D9FF2B08D0212034E01C4B427833F839
S31508008AB01130D340DA07F6D532F0FAFE23780646A7
S31508008AC0FF2B05D042462046296803F073FD28602F
S31508008AD02A68531C1AD00C23114903FB0211069B62
S31508008AE0C1F8B870C1F8BC302378FF2B05D0012334
S31508008AF0103293400B4AC2F82434304632F0D3FE83
S31508008B00002007E040F2FF734278D2E7304632F0A1
S31508008B10CAFE2D20BDE8F0812220FBE714CE03080B
S31508008B20781F002000D0035008B503F05DFC054B04
S31508008B3000F0553020F05020C3F82004BDE8084066
S31508008B40FFF7ECBD00E0035008B503F04DFC054BFC
S31508008B5000F0AA3020F0A020C3F82004BDE80840A1
S31508008B60FFF7DCBD00E0035013B504460A4829F0B8
S31508008B70A9F8A2780421B2FA82F2237852098DF86C
S31508008B80043063780DEB01008DF80530FFF710FE11
S31508008B90002002B010BD00BF10D20308144B984243
S31508008BA01AD008D8A3F5004398420CD003F58043A1
S31508008BB098420DD070470F4B984211D003F5804369
S31508008BC0984211D070470C4B0B600C4B13607047E2
S31508008BD00B4B0B600B4BF9E70B4B0B600B4BF5E79D
S31508008BE00B4B0B600B4BF1E70B4B0B600B4BEDE79D
S31508008BF000000550004005500CD2030850D2030867
S31508008C0008D2030844D2030804D2030838D203085A
S31508008C1000D203082CD20308FCD1030820D203088B
S31508008C2030B504460D468DB002AA01A90068FFF7C3
S31508008C30B5FF019829F046F8384829F043F86379D2
S31508008C402A798DF80030003AA37918BF0122042149
S31508008C5068468DF80130FFF7ABFD0D22002104A808
S31508008C6026F0A3F802238DF811302D4B21790593B0
S31508008C702B7920685A1E5342534104AA8DF81A309C
S31508008C8027F0BBFC2268274B9A423ED003F5804367
S31508008C909A423CD003F580439A423AD003F5804382
S31508008CA09A4238D020482149A3F5BC33A3F59273DC
S31508008CB0824208BF0B46A0796279217942EA0042CE
S31508008CC043F82120029B03A9187932F0A9FE2A68E5
S31508008CD0039B2568B3FBF2F3013B2A6BEB6123790F
S31508008CE0002405EB43132A6B21460F229C660DF1DF
S31508008CF0210026F05AF80123284608A98DF82030C5
S31508008D0027F03AFC20460DB030BD094BD3E7094B96
S31508008D10D1E7094BCFE7094BCDE700BF10D20308CF
S31508008D200001030000800450008005507CC70350F2
S31508008D30FCC603501CC703503CC703505CC703500E
S31508008D40012301790268134803FA01F182421AD015
S31508008D5000F5804082420DD00F4B9A4215D003F59C
S31508008D6080439A4213D003F580439A4214BF4FF0CA
S31508008D70FF33042341F2F8625B0103F1A04303F5D4
S31508008D807033995070470023F4E70223F2E7032370
S31508008D90F0E700BF00800450000005502DE9F04FB1
S31508008DA09A46564B85B01B7806460F461546DDF89B
S31508008DB03C909DF844B0DDF85080002B00F0978079
S31508008DC0072A00F296800E9B002B00F09280B9F1DC
S31508008DD0000F00F08E80129BB3F5006F00F38980B8
S31508008DE0012803D1109B002B00F08380444B03EB32
S31508008DF005131B7B002B7ED0424C102200216846AF
S31508008E0025F0D3FF04EB45141022A7BB39462046AC
S31508008E1025F0CBFF43F210036380BBF1000F03D1AB
S31508008E20E37843F00303E370364A0E9B02EB451CD6
S31508008E30CCE90193129B6901581E9DF84C30C0F38A
S31508008E400A0003F003039B0643EA001E53582E4804
S31508008E50012E00EA03004EEA0003CDF800A05350A5
S31508008E6017D0B8F1000F2ED19CF8023068F304131E
S31508008E708CF8023027E00021204625F096FF4FF4B3
S31508008E8044736380BBF1000FCED1E37843F030031F
S31508008E90C9E713230CF1100ECCF80C309CE80F0030
S31508008EA08EE80F006FF00301DCF81C20109B61F3BD
S31508008EB09F02012FCCF81C20CCF8143003D1CCF833
S31508008EC01890CCF8043000270D4A290102EB051347
S31508008ED042F80180159A28465A60694622469F60DC
S31508008EE05E7303F045F9384605B0BDE8F08F0748CC
S31508008EF0FAE70748F8E70748F6E700BF3196002083
S31508008F00E0210020E02000200F80FFF3028000F01F
S31508008F10018000F0078000F038B5124B05461B7833
S31508008F20DBB1E0B132F0C4FC0F4A00231146147BD2
S31508008F3054B92B6001251A0101EB03131D738C50DC
S31508008F4032F0B1FC204638BD0133082B02F110027D
S31508008F50EDD132F0A8FC0548F5E70548F3E70548E2
S31508008F60F1E700BF31960020E0210020048000F0E0
S31508008F70028000F0018000F038B532F099FC002339
S31508008F8005460B4A147B6CB90133082B02F1100213
S31508008F90F8D103F099F8074B28461C7032F083FC89
S31508008FA0204603E0284632F07EFC034838BD00BF61
S31508008FB0E021002031960020058000F00D4B10B509
S31508008FC01B78044693B1072812D832F071FC0A4B75
S31508008FD003EB04131A7B2AB100241C7332F063FCDA
S31508008FE0204610BD32F05FFC0448FAE70448F8E76B
S31508008FF00448F6E731960020E0210020068000F0BC
S31508009000028000F0018000F0154B13B518680023A4
S3150800901001908DF8043032F04BFC124B1C7824B1C9
S3150800902032F041FC104802B010BD01221A7032F02D
S315080090303AFC0E4B01A81C731C7783F82C4083F866
S315080090403C4083F84C4083F85C4083F86C4083F8D6
S315080090507C4008238DF8073003F05AF82046E2E7EB
S315080090601ACE030831960020038000F0E021002084
S31508009070F8B50D4D2D7885B1072810DC0B4D060186
S3150800908005EB0014277B67B1AB510025069BA5604D
S31508009090636003F06DF82846F8BD0548FCE7054807
S315080090A0FAE70548F8E700BF31960020E0210020DE
S315080090B0028000F0018000F0078000F00A4A08B537
S315080090C012785AB107280BD8084A02EB00131B7B03
S315080090D043B1002103F00EF8002008BD0448FCE760
S315080090E00448FAE70448F8E731960020E021002012
S315080090F0028000F0018000F0078000F00A4A08B5F7
S3150800910012785AB107280BD8084A02EB00131B7BC2
S3150800911043B1012102F0EEFF002008BD0448FCE738
S315080091200448FAE70448F8E731960020E0210020D1
S31508009130028000F0018000F0078000F0184B2DE94E
S31508009140F0411F6D5B6D1F4000D5FEE70126002527
S31508009150144CDFF85880374218D02368C8F8506096
S31508009160A3B1A168284601316268A1609847637B6C
S31508009170012B0BD150B90C4B03EB45131A7B60F34B
S3150800918041021A731A7F60F341021A770135082DD6
S315080091904FEA460604F11004DDD1BDE8F08100BFB0
S315080091A000000450E0210020E020002000200450A8
S315080091B02DE9F04F144606460D469B46C36B87B00D
S315080091C001225B6902A960689847F36B01225B6913
S315080091D003A92846984702A827F030F8074648B159
S315080091E00023A37563754FF0FF33A360002007B013
S315080091F0BDE8F08F03A827F02EF80123A375237E78
S3150800920004EBC303DD611F846368AB420ED12060A3
S3150800921003A827F042F84FF0FF332075A360237D9B
S31508009220043B022B26D80023A375DFE723681A1A06
S3150800923053425341A37503A827F02FF8237D834291
S3150800924018BFA77503A827F00AF8074602A827F04B
S3150800925006F8874218BF002303A818BFA37527F08E
S3150800926006F8074602A827F002F887421CBF002323
S31508009270A375D4E703A826F0F2FF80B1F36B0222A8
S3150800928028465B6904A9984704A826F0F7FF034611
S31508009290207D032839D8DFE800F03838040903A808
S315080092A0F3E7CC22237E04EBC3031A8401F0BAFA4F
S315080092B0109B187003A8277E26F0C5FF04EBC70786
S315080092C087F82200237E03A804EBC303B3F8209093
S315080092D093F8227026F0C3FF804603A826F0C7FF3E
S315080092E08246B8F1000F15D0F36B022228465B6957
S315080092F004A9984704A826F086FF6075637D6BB9B4
S315080093000023A3754FF0000838E0227E04EBC20262
S315080093101384CBE703A826F061FFEEE794F81680DE
S31508009320B8F1000FEED0B9F1000F09D1DFB1012372
S31508009330627EE375002A44D19F4218D1677614E00D
S31508009340736C05EB0A02594285EA020008421CBF03
S315080093500021A175591E0A409B1A9945D0D8A37DAC
S31508009360002BE3D1CEE7E37D43B94FF000084B4627
S3150800937052462946304626F049FCA060A27D12B125
S3150800938023694B4423611449237E097899421ED9DF
S3150800939001332376BBF1000F1BD0D2B1E37DC3B1F5
S315080093A0B8F1000F15D1032F13D0A1684B1C10D0AC
S315080093B0109B2246009330460123FFF7F9FEA0755D
S315080093C007E0012FDAD0032F08BFA376CDE70023E5
S315080093D0A375A07D0BE700BF40CE03082DE9F04F2B
S315080093E00E46984600238BB004464FF0FF311046D0
S315080093F017468DF8133001F0FFF9B6F5801F3BD3F9
S31508009400B21C53D1E56A6B1C57D12046616A26F017
S3150800941043FB0546B31C18BF0123DFF810910193DF
S31508009420636A626C0293236805A902FB053AE36B3B
S3150800943005225B695046984705A826F09AFF26F04C
S31508009440BDFF504626F0C5FF4FF0000B8246014689
S315080094504B1C05D0636C81EA0A025B42134232D088
S315080094602946204626F018FB029BAB424DD0BBF19D
S31508009470000F4DD10546D3E7314605AA04F1080089
S3150800948026F02AFE0146481C10D0384601F0B4F9E9
S315080094900122394620460DF1130326F009FC28B1AE
S315080094A09DF8133088F80030002003E0237C002B59
S315080094B0A8D12D200BB0BDE8F08F2368ED1A636C98
S315080094C0B5FBF3F5A6E7484601F096F90DF1130347
S315080094D049462046019A26F0EBFB034690B1B21C9A
S315080094E003D0D9F80020B2420CD19DF8132003937B
S315080094F00D4B88F8002049461A6838462FF03AFC82
S31508009500039B9B46D9F80810A2E7BBF1000FD0D001
S31508009510B6F5801FC8D2314698F800307A6804F14B
S31508009520080001F097F8BFE73CCE0308B4250020F1
S315080095302DE9F3410446174698460E46194D816AA9
S31508009540E36A8B422AD04B1C18E0284601F054F9EE
S315080095500122294620460DF1070326F0A9FB30B162
S315080095604346294620469DF80720B847B0B1A96862
S315080095704A1C05D0012E0AD0E36A9942E5D10DE0CE
S315080095806968204626F015FB012E0146D8D16B687E
S3150800959081EA0302636C5B421A42D1D002B0BDE88D
S315080095A0F08100BF882500202DE9F041036B904625
S315080095B0826B07689A4288BF8363426C436A90B09D
S315080095C002FB0377C36B0E46052201A95B690446B5
S315080095D03846984701A826F0CCFE01280146307087
S315080095E057D0656CE26B2368606AD2F814C005FB35
S315080095F00030052206A9E04706A826F0BAFE01288B
S315080096004FF0000523D0D4E90A3201219342CDE96F
S315080096100B458DF834800E958DF83C102AD11946E5
S31508009620204626F0C6FA236B626C14339B1AE06256
S3150800963023630C9B53B99DF83C303BB1626A616C5D
S315080096402368E06B01FB023126F04BFE0C9DE36BB1
S3150800965005225B6901A93846984701A826F089FEC4
S3150800966030702846236BA26B9A4288BFA36310B05A
S31508009670BDE8F081237C33B91C490BAA04F1080024
S3150800968001F036F8D5E72046194A0BABFFF750FF2D
S31508009690CFE7237C23BB2246164904F1080001F0D4
S315080096A027F8616A204626F018FA616A421C2046A5
S315080096B026F0E1F9054620B9236B626C1344143B86
S315080096C023632046A16A26F074FA2368A062C01AAA
S315080096D0636CB0FBF3F06062204626F0ADFAB6E79D
S315080096E000232046044AFFF723FFDAE7BD9E000859
S315080096F0399E000839FD0208D5FC020873B50D46E7
S31508009700D11E4A421C461B7E4A419A4226D12968E6
S315080097102368994222D3636899421FD8114E0DF1E6
S3150800972007033246FFF75AFEC0B972686B689A4259
S3150800973014D19DF80730DA1E53425341227E9342D4
S315080097400CD1636901336361D4E90323934205D2DB
S315080097502968A26842F8231001332361012002B068
S3150800976070BD00BFE02500202DE9F04F9A468BB06A
S315080097709DF85030DFF850B10293DBF81030804680
S3150800978053450D461646C0F09980D146DBF804309D
S315080097900193B9F1000F00F08D80D8F83C30012212
S315080097A05B6907A90198984707A826F054FDDBF8D6
S315080097B00030984240F0858007A826F058FD042816
S315080097C0074614D107A826F059FD019B029A0446BC
S315080097D03B44002A3FD1864212D91446361A4046DF
S315080097E0019926F0E6F9A9EB04090190D1E7D8F822
S315080097F03C3002225B69019808A9984708A8E2E765
S31508009800841B544528BF5446032C03EB0607AAEBD2
S31508009810040A4FEA94021CD9D8F83C30294638463F
S315080098205B69984724F0030304F003061F441D44AC
S31508009830002ED4D0D8F83C3001225B6908A93846F6
S3150800984098473246284608A935442FF093FA002649
S31508009850C5E72646ECE7074600F0030203920344F1
S315080098602A1804920593049BDD1B059BD81B039BB2
S315080098709F420FD1002FB2D0D8F83C30012208A958
S315080098805B6998473A46284608A92FF0EFF978B950
S315080098903D44A4E7D8F83C30012208A95B699847FB
S315080098A00422284608A92FF0E1F908B9043FDAE7A7
S315080098B04FF0360948460BB0BDE8F08F4FF0630904
S315080098C0F8E74FF06F09F5E70C2600202DE9F0417F
S315080098D00F4616469846044688B060B390F834504A
S315080098E0FDB1012126F09DF800210E9BCDE9051159
S315080098F0CDE902379DF83C30CDF804808DF81C3050
S31508009900237C04968BB90D4901AA04F1080000F0DE
S31508009910EFFEDDE90553E06B002E08BF1D4626F075
S3150800992019FA284608B0BDE8F0812046044A01AB7A
S31508009930FFF7FEFDEDE70546F3E700BF03FD020866
S31508009940FD9600082DE9F04F99B00F4609920A696D
S31508009950416C0E931439D31DB3FBF1F3013302EBBB
S31508009960C302036B04469342C0F00D820023DFF85E
S3150800997020940D93E36A48461946079300F03CFF86
S31508009980D7E9033604930E9B022B4ED1CC2E40F01A
S315080099908A81099B002B42D03946204626F038FAA0
S315080099A0656C079A6B1E13401490ED1AE36B01223F
S315080099B05B6916A97868984716A826F050FC00280F
S315080099C00CBF04230823782E06933DD901230025CE
S315080099D04FF0080A05933B6805990E98C9F80030B8
S315080099E0C9F8106026F05DFC4FEA9A03109300232D
S315080099F0DDF81CB089F814000B930F9308930C93A9
S31508009A00616C4A1E0BEA02028B1A002E38D05544A6
S31508009A10AB4240D8236B5B1A13442363ABE0049B29
S31508009A201B68149308230693D0E7656C079A6B1E88
S31508009A301340782EA5EB030516D8FB7D7BB9099B49
S31508009A40002BB3D104230693331DAB4210D9A6B11C
S31508009A50082DBBD804250023AA460593BBE7099B16
S31508009A60002BA3D10823EEE7099B002B9ED1D9E74B
S31508009A70002505954FF0040AADE704250596F9E794
S31508009A805345C7D3B0460BEB0A030393089B002B39
S31508009A9018BF032313E0A3EB0A039E42B0460BEB61
S31508009AA00A0228BF98469E420392EFD90123D9F8A5
S31508009AB0102089F81730964271D1C9F804B0089376
S31508009AC099F81730002B6CD099F818200899D31CF0
S31508009AD009EBC3030132C3F804B0A3F808809972EE
S31508009AE089F81820B8F1000F14D00E9B022B5BD111
S31508009AF00B9B7BB90F9B4344032B0BD9E36B0122CA
S31508009B009B69039814A998470546002840F03D81AB
S31508009B1001230B93089B16A80193059B009399F8BC
S31508009B2014204346396800F01DFEE36B58469B69CE
S31508009B30109A16A99847051E0D9B18BF5B465246F4
S31508009B400D9359464346204626F060F8236B08F1E4
S31508009B500302A3EB0A0322F003029B1AC9F80800C2
S31508009B602363002D40F011810F9BDDF80CB04344B0
S31508009B70A6EB08060F935946204626F01AF8002544
S31508009B808346002E7FF43CAF814A3968936804F116
S31508009B900800E36252680E9B00F05CFDDEE00223DB
S31508009BA08DE7C9F804B09DE7099B002B30D1049BCB
S31508009BB0B8F1030F43440A9327D9DDE90301E36BA0
S31508009BC04FEA98029B6998470546002865D118F020
S31508009BD003025FD0049B28F003052B440493039BE0
S31508009BE01D444FF0FF33049915A815932FF0C2F8BA
S31508009BF0E36B28469B69012215A9984705460A9BE7
S31508009C000493002D86D0039B99E74246039DE8E717
S31508009C10039B0A9307F120031193FB7D78689BB198
S31508009C2000233D7E0C9AD9B28D4211D9119903F1C0
S31508009C30010C31F83310914226D9069907EBC30374
S31508009C40D8690A44104403E00C9B069A1344184446
S31508009C50E36B01225B6915A99847159B01221393AB
S31508009C600C9B0A9804330C93E36B13A99B699847DA
S31508009C70039B0A9A43449B1A042B054607D978B9CD
S31508009C80134604330A93C8E76346521ACBE70A9B7E
S31508009C900393B6E70A9B04933CE70A9B0493B2E74F
S31508009CA00A9B0393AFE7702604F10803039323681E
S31508009CB0079A606CA2EB030ABAFBF0FA00FB0A30BB
S31508009CC026F087FBE16A8046204625F072FFA26AE5
S31508009CD082424AD0626CD9F80830511E0B40216B7B
S31508009CE02568891A0B4423630D9BE0625D1BB5FB4F
S31508009CF0F2F5AA4536D1079BB3EB080A12D0E36BF7
S31508009D004FEA9A0241469B6998478346E36A079A4F
S31508009D105344E362236B03989B1A4344236326F058
S31508009D20ACF9DA462368616CE06B01FB053126F075
S31508009D30C5FA204625F080FE204625F07DFF2063E3
S31508009D40BAF1000F11D03A69616CD31D1439B3FB0F
S31508009D50F1F3013302EBC3029042A8D2304619B0A0
S31508009D60BDE8F08F4FF0000ADCE73A69616CD31D55
S31508009D701439B3FBF1F3013302EBC302236B9342AD
S31508009D80BFF4F8ADEAE71C26E8E72E468CE700BFE5
S31508009D90B42500202DE9F3471E4643690446B3421D
S31508009DA0884617469DF828903DD300258DF807501C
S31508009DB0204625F00DFED4F830A082450AD2236A43
S31508009DC0B5EB430F06D2002220460DF10701FFF737
S31508009DD0EBFB30B39DF80730012B05D10022204656
S31508009DE00DF10701FFF7E0FBB9F1030F06D0314685
S31508009DF0204625F0D8FD256B854218D30D4D4FF02A
S31508009E00FF31284600F0F8FC4B460022294620463A
S31508009E10C5E90376C5F8008002B0BDE8F047FFF74C
S31508009E2091BD0135C4E7622002B0BDE8F0871C2069
S31508009E30FAE700BFE0250020032A2DE9F34106468C
S31508009E400D4617461C4606D1237A012B23D001203E
S31508009E5002B0BDE8F081DFF86080096842460DF17E
S31508009E600703FFF7BBFA60600028EDD19DF80720CD
S31508009E70237A032AE8D0D8F804106A689142E3D115
S31508009E80012B2969D4F80CC007D172690CEB0103C0
S31508009E90934202D92074207CDAE708316144E160F4
S31508009EA03B46012229463046FFF74CFD60600028F4
S31508009EB0CAD00020CCE700BFE02500202DE9F341F9
S31508009EC0089C032A1746266806D1237A012B24D034
S31508009ED0012002B0BDE8F081DFF8908030464246A6
S31508009EE00DF10703FFF77AFA60600028EDD12568BF
S31508009EF0D8F80400A96AD5F844C04840CCF1000354
S31508009F001840227AE1D1012A09D1E268D8F810303E
S31508009F1013447269934202D92074207CD9E72868D1
S31508009F20EB6A1B1A081AB3FBFCF3B0FBFCF083427E
S31508009F300BD1706CF36A421E1340326B121A13442B
S31508009F402846336325F035FEE862D8F81020E36822
S31508009F5008321344E36001223B4604492068FFF7B0
S31508009F60F1FC60600028B0D00020B2E7E0250020B0
S31508009F702DE9F04F4FF0FF334FF6FF7200250446E8
S31508009F8000F10806C0E909238BB0C36205620563C0
S31508009F9030460F4626F071F8204625F04DFD20BBC9
S31508009FA02046394625F0C8FD204625F045FD20BB4C
S31508009FB05E200BB0BDE8F08FE26B2368606CD2F8C8
S31508009FC014C000FB0530052205A9E04705A826F0C0
S31508009FD0D0F9012828D12946204625F07EFD421CC5
S31508009FE02946204625F047FD0135E3699D42E3D31E
S31508009FF0204625F021FD0028D2D000254FF0FF3954
S3150800A0004FF6FF73CA46A846C4E90853E36998455C
S3150800A01014D3A5EB0905012D36D84FF6FF72636AEE
S3150800A020934246D16720C4E726F0CDF90028DBD055
S3150800A0302946204625F051FD0246D1E72368E26B02
S3150800A040606C576900FB0830052205A9B84705A8C2
S3150800A05026F08FF9834605A826F062F90746584682
S3150800A06026F0ACF968B1574538BFC4F82480B9451D
S3150800A07028BFB946BD4238BF3D46BA46236A0133B2
S3150800A080236208F10108C1E74FF6FF7300256362F2
S3150800A090E3699D42C1D2676C2068E36B052207FB22
S3150800A0A005005B6905A9984705A826F039F9013521
S3150800A0B0EEE7E26B676C2068694607FB03005569A3
S3150800A0C00522A847684626F02BF9626A2368606C61
S3150800A0D0504D00FB023026F07CF94FF0FF33A062AA
S3150800A0E0E3622A466FF00101204605ABFFF776F9D1
S3150800A0F000284FD1AD6829462046E56225F078FC50
S3150800A100206320B92046E16A25F053FDE06229461E
S3150800A110204625F04EFD0546A36A9D423CD1656959
S3150800A120626CE91C143AB1FBF2F14FF0000805EB3A
S3150800A130C1050335B5FBF2F5C1460235E369994514
S3150800A1403CD3A8455AD22046616A25F0A5FC0027CB
S3150800A150064604F1400AB84512D8626C2368694677
S3150800A16002FB0639E36B05225B6948469847684651
S3150800A17026F0D6F8534602464946E06B26F02BF9F8
S3150800A1803146204625F088FC0137AF420646E2D321
S3150800A19064200EE7A56AAEE72946204625F028FC86
S3150800A1A0236B2946034407462363204625F001FD11
S3150800A1B00546002FB0D1C4E90B07ADE7636C2768E5
S3150800A1C0052203FB0977E36B05A95B6938469847BF
S3150800A1D005A826F0CEF826F0F1F860B1384626F044
S3150800A1E0F8F80146204625F003FC636C143B9842B8
S3150800A1F008BF08F1010809F101099FE7304625F073
S3150800A2003CFF002320461946034AFFF791F9002030
S3150800A210CFE600BFE02500209FFC02080023624A23
S3150800A2202DE9F04117680E460446136018B9212532
S3150800A2302846BDE8F08190F834500DB309680268E5
S3150800A240914240F0A98071684268914240F0A4802A
S3150800A250B1688268914240F09F80F168C268914275
S3150800A26040F09A8031694269914240F09580B1691F
S3150800A270C26B914240F0908072691D468261D7E7B1
S3150800A28050222946D0F8388024F08FFDD6E90212EC
S3150800A290336804F1080023607368C4F83880636083
S3150800A2A0336963617369A36125F0F9FEB36904F143
S3150800A2B04000E3639B68984794F8432020B1E56122
S3150800A2C0002AB4D05B25B3E7656C002DF7D0666825
S3150800A2D0B6FBF5F3E361002AA9D0B542F2D82268A5
S3150800A2E0B2FBF5F105FB1122002A57D105FB1363D2
S3150800A2F0002B53D1204625F06BFBA3690433034496
S3150800A3009E424DD340F634726369CC3B934249D89A
S3150800A310B5F5805FD6D30321204625F082FBD4E924
S3150800A3200001E36B1B6898470546E36B0220DB6870
S3150800A33098471DB1002384F834301DE0394620467D
S3150800A340FFF716FE6428054604D139462046FFF76E
S3150800A3500FFE0546636C143B002DEBD1226A20469E
S3150800A36002FB03F625F034FBA369043303449E423B
S3150800A37006D284F834505A25E06B25F0EBFC57E7F3
S3150800A3800123D4E90001094A84F8343013680133FB
S3150800A390136025F01EFFEFE75D2549E7592547E7D6
S3150800A3A05A2545E75F2543E76422002060220020FE
S3150800A3B008B578B190F8343073B10023074A80F8AD
S3150800A3C034301368013B136013B9C36B5B68984755
S3150800A3D0002008BD2120FCE71120FAE760220020B2
S3150800A3E02DE9FF410F4690461E46054698B390F85C
S3150800A3F0343093B3B1F5801F31D21A4C022125F0BF
S3150800A40010FB2246394628460DF10F03FEF7E6FFF4
S3150800A410024678B101234246009339463346284618
S3150800A420FFF7B8FC0446E86B25F094FC204604B018
S3150800A430BDE8F0819DF80F30012BEBD12169B142BF
S3150800A440E8D10093414633462846FFF78DF904467E
S3150800A4500028DFD1E7E72124E8E71124E6E72924E5
S3150800A460E4E700BF0C2600202DE9FF410C461646FE
S3150800A4701F46054680B390F834307BB3B1F5801F8C
S3150800A4802ED2DFF86080012125F0CBFA214642461C
S3150800A49028460DF10F03FEF7A1FF044670B99DF893
S3150800A4A00F30012B11D1D8F81030BB4212D1024619
S3150800A4B0009031462846FFF757F90446E86B25F021
S3150800A4C049FC204604B0BDE8F081022B14BF2D24B8
S3150800A4D06024F3E76324F1E72124F2E71124F0E787
S3150800A4E02924EEE70C2600202DE9F04385B00C461A
S3150800A4F017461E460546DDF8308098B390F8343086
S3150800A50093B3B1F5801F31D2DFF86490012125F0AD
S3150800A51088FA21464A4628460DF10F03FEF75EFFE4
S3150800A520044688B99DF80F30012B14D1D9F81020AC
S3150800A53006EB08039A4213D300904346324639463F
S3150800A5402846FFF711F90446E86B25F003FC204678
S3150800A55005B0BDE8F083022B14BF2D246024F3E771
S3150800A5606324F1E72124F2E71124F0E72924EEE732
S3150800A5700C2600202DE9F3411F4600230C461646FB
S3150800A58005463B6050B390F834304BB3B1F5801FA5
S3150800A59028D2DFF85480012125F043FA21464246A5
S3150800A5A028460DF10703FEF719FF0446A0B99DF8E2
S3150800A5B00730032B10D0022B0AD101233360042362
S3150800A5C03B60E86B25F0C6FB204602B0BDE8F0818B
S3150800A5D0D8F810303060F3E72D24F2E72124F3E7AA
S3150800A5E01124F1E72924EFE70C26002030B50C46A4
S3150800A5F0054685B028B390F8343023B3B1F5801FEB
S3150800A60023D2022125F00DFA0DF10F032146284623
S3150800A6100F4AFEF7E3FE034688B99DF80F20032A82
S3150800A6200DD003222146009202462846FFF7B2FBC8
S3150800A6300446E86B25F08EFB204605B030BD2D2478
S3150800A640F7E72124F8E71124F6E72924F4E700BF01
S3150800A6500C2600202DE9F043466886B3056898461F
S3150800A6604FF0000CA946AE4655F83C400CF1010CDB
S3150800A670C4F31307013401D0B94217D066450EF169
S3150800A680080EF1D12F46002403E0A64207F1080779
S3150800A69012D055F8343001340133F6D1C1F3130121
S3150800A6A041EA0851C7E90012BDE8F08341EA0851BA
S3150800A6B0CEE90012BDE8F083B8F1030F03D10123F8
S3150800A6C00372BDE8F083002303E09E4209F10809FE
S3150800A6D0F5D055F833400133C4F30754032CF4D1AD
S3150800A6E0C1F3130343EA0853C9E90032BDE8F0830E
S3150800A6F02DE9F0410646406882B0C0B10F46904643
S3150800A7000024336853F8345003EBC403C5F30752E7
S3150800A710C5F31301013504F1010406D05B68304620
S3150800A720CDF80080B84710B170688442E9D302B00A
S3150800A730BDE8F081024B1968024B1868FFF76EBD39
S3150800A740BCB10020DCB1002008B531F0A8F8014BF7
S3150800A750186008BD38260020014B186831F09AB8F1
S3150800A7603826002073B504462248012A00EAC1119A
S3150800A7709DF8185023F07C4007D9961E012E28D93B
S3150800A780073303F07F03194308E09DF81C300A439A
S3150800A790DB0603F0C053134343F060410023C4E9CA
S3150800A7A000108DF80730B5B1202221460DF10700BB
S3150800A7B025F02BFE1A220DF10700211D25F025FE96
S3150800A7C0082063689DF8072043EA8263636002B045
S3150800A7D070BD1143E2E71B220DF10700214625F063
S3150800A7E014FE23689DF80720042043EAC263236009
S3150800A7F0EDE700BF80FFFF0738B5094B0D461A681D
S3150800A8000021044624F0D1FA00234FF0FF322383B7
S3150800A810C4E900252361A260E382A37638BD00BFA0
S3150800A8203CCE03080138C0B205289ABF014B185C14
S3150800A8300120704741CE03082DE9F0410746154629
S3150800A84000240E46596888B0490A012922464FEA6B
S3150800A850510104F10104F8D8DC78997824031B889F
S3150800A860C90201F4006104F480540C43C3F30A03DB
S3150800A8705203234492B24FF000089C18274B6FEA04
S3150800A8800444039325F07843ED4302A90DF107002C
S3150800A8901B2202938DF8078025F0B7FD9DF8072047
S3150800A8A0029B02A943EAC2630DF107001B2225F0A9
S3150800A8B07845049302958DF8078025F0A6FD9DF846
S3150800A8C00720029B6FEA144443EAC26305934FF0DC
S3150800A8D0FF330794069307A9BB69012206F1100006
S3150800A8E09847BB6905A90446012206F1080098475E
S3150800A8F0BB69404518BF044604A90122301D984784
S3150800A9000122404518BF0446BB69304603A998474B
S3150800A910404508BF204608B0BDE8F08101009AB25C
S3150800A920034B5A6812B19A6A002AFAD1704700BFD7
S3150800A9300040065043681249B3FA83F310B5C3F1D1
S3150800A9401F044B680BB1FFF7EBFF01220D4B5A6052
S3150800A9504B689B07FCD4027A437843EA420343EAEE
S3150800A96004130124427A8B60837A43EA42034B62DA
S3150800A970054B5C60037813B1FFF7D2FFCC6010BDBE
S3150800A980004006500060065000500650044B9A6A74
S3150800A990D006FCD419639A6AD206FCD4704700BF65
S3150800A9A000400650014B186B704700BF0040065028
S3150800A9B008B5FFF7B5FF02230449CB6000230B62F5
S3150800A9C0FFF7AEFF0123CB6008BD00BF004006506D
S3150800A9D0044BD3F88420D206FBD4D3F88400C0F302
S3150800A9E0811070470040005038B5174B0546D3F81C
S3150800A9F028310C4603F00703013B052B20D8DFE876
S3150800AA0003F003131B0F0B172EF04CFB052305B1A0
S3150800AA10286004B1236038BD2EF044FB0623F6E710
S3150800AA202EF080FB0723F2E72EF076FB0323EEE7F2
S3150800AA302EF072FB0423EAE72EF06AFB0223E6E710
S3150800AA4000231846E3E700BF00800050002337B50F
S3150800AA500193164B0546D3F820320C4603F007033C
S3150800AA60042B21D8DFE803F0030B11161B00012382
S3150800AA700DB1019A2A6004B1236003B030BD0021EC
S3150800AA8001A8FFF7B1FF1123F2E72EF04BFB0723CE
S3150800AA900190EDE730F0F8FE0A230190E8E72EF082
S3150800AAA089FB09230190E3E70023E1E700800050D2
S3150800AAB038B5104B0546D3F850320C4603F003035D
S3150800AAC0022B12D0032B08D0012B0AD000231846DC
S3150800AAD005B1286004B1236038BD30F0D8FE0B23D9
S3150800AAE0F6E730F0D1FE0A23F2E72EF063FB0923DE
S3150800AAF0EEE700BF0080005038B5104B0546D3F886
S3150800AB0000310C4603F00303022B0BD0032B0DD0A8
S3150800AB10012B0FD12EF000FB032305B1286004B1E9
S3150800AB20236038BD2EF046FB0923F6E730F0AAFE6F
S3150800AB300823F2E701230020EFE700BF008000505A
S3150800AB4038B5184B0546D3F820010C4600F0070027
S3150800AB50062823D8DFE800F0040A0E16121A1E008B
S3150800AB60012305B1286004B1236038BD2EF09AFA96
S3150800AB700523F6E72EF0D0FA0323F2E72EF0D2FAF1
S3150800AB800723EEE72EF0C4FA0223EAE72EF08AFA44
S3150800AB900623E6E72EF0C0FA0423E2E70023184668
S3150800ABA0DFE700BF0080005038B5104B0546D3F8E4
S3150800ABB040310C4603F00303022B0BD0032B0DD0B8
S3150800ABC0012B0FD130F060FE0A2305B1286004B1CD
S3150800ABD0236038BD2EF0EEFA0923F6E730F057FE6B
S3150800ABE00B23F2E701230020EFE700BF00800050A7
S3150800ABF0002337B50193164B0546D3F860320C4649
S3150800AC0003F00703013B032B1FD8DFE803F0020E0E
S3150800AC101914002101A8FFF793FF0F230DB1019A1C
S3150800AC202A6004B1236003B030BD002101A8FFF7F4
S3150800AC30BBFF1023F2E72EF075FA07230190EDE724
S3150800AC402EF066FA02230190E8E70023E6E700BF44
S3150800AC500080005038B5104B0546D3F860310C46D5
S3150800AC6003F00303022B0BD0032B0DD0012B0FD1BE
S3150800AC7030F00AFE0A2305B1286004B1236038BD06
S3150800AC802EF098FA0923F6E730F001FE0B23F2E7D7
S3150800AC9001230020EFE700BF0080005073B50D4682
S3150800ACA00021114B0191D3F88041064604F00304B4
S3150800ACB0022C13D0032C0CD0012C13D101A8FFF7BA
S3150800ACC03FFF0F240EB1019B336005B12C6002B023
S3150800ACD070BD2EF027FA07240190F3E72EF018FA34
S3150800ACE00190EFE70C46EDE70080005038B5104BB1
S3150800ACF00546D3F840320C4603F00303022B0BD06B
S3150800AD00032B0DD0012B0FD130F0BEFD0A2305B160
S3150800AD10286004B1236038BD2EF04CFA0923F6E703
S3150800AD2030F0B5FD0B23F2E701230020EFE700BF63
S3150800AD300080005038B5144B0546D3F800020C467F
S3150800AD4000F0070004281BD8DFE800F003090D11FE
S3150800AD501500012305B1286004B1236038BD30F021
S3150800AD6093FD0A23F6E72EF025FA0923F2E730F0D9
S3150800AD708EFD0B23EEE72EF0B5F90E23800AE9E7E0
S3150800AD8000231846E6E700BF0080005038B5144B8C
S3150800AD900546D3F808020C4600F0070004281BD81D
S3150800ADA0DFE800F003090D111500012305B128603D
S3150800ADB004B1236038BD30F067FD0A23F6E72EF0AC
S3150800ADC0F9F90923F2E730F062FD0B23EEE72EF0DE
S3150800ADD089F90E23800AE9E700231846E6E700BF4B
S3150800ADE000800050B0F5207F1FD009D8B0F5007F4D
S3150800ADF015D003D868B1B0F5C07F0AD000200CE0A2
S3150800AE00B0F5607FFAD10B4BD3F88000C0F3011080
S3150800AE1003E0084B186FC0F3033001307047054B49
S3150800AE20D3F89000C0F30460F7E7024B186FC0F33D
S3150800AE308020F2E70080005002464FF48030104B25
S3150800AE4010B598660020FFF7CDFF504341F67132E2
S3150800AE500C4BDC69DA635A6804F4803422F4401235
S3150800AE6059B90949884294BF0020012000050243C8
S3150800AE705A600CB10022DA6310BD0449F2E700BF3C
S3150800AE800090005000000350005A6202002D310164
S3150800AE90430905D0012B0CD0022B084B18BF002301
S3150800AEA000F01F0039B103F58053012282401A6071
S3150800AEB07047034BF4E703F50053F6E76880005044
S3150800AEC0648000501FB50021B0F5807F04460191CB
S3150800AED000F000816BD8002800F0DF80A0F1200484
S3150800AEE0602C74D8602C72D8DFE814F0D700DA002A
S3150800AEF0D700DA00EA00EA00EA00EA00EA00DA0027
S3150800AF00EF007A009D0005017A00DA00DA00DA001F
S3150800AF1071007100710071007100710071009D006F
S3150800AF20DA00DA00DA002F010F01DA007100710089
S3150800AF30710071007100710071007100710071007B
S3150800AF40710071001401EA00D700D700D7000A0182
S3150800AF507A007A001901BA008F00CE00CE0071007F
S3150800AF60710071007100710071007100710071004B
S3150800AF70710071007100710071007100710071003B
S3150800AF80710071007100710071007100710071002B
S3150800AF90710071007100710071007100710071001B
S3150800AFA0710071007100710071007100D300B0F575
S3150800AFB0F06F00F0CA803BD8B0F5607F7BD01AD816
S3150800AFC0B0F5007F77D005D8B0F5C07F65D0019879
S3150800AFD004B010BDB0F5207F62D0B0F5407FF6D141
S3150800AFE02EF080F802464FF42070FFF7FBFEB2FB06
S3150800AFF0F0F252085DE0B0F5B06F66D00AD8B0F549
S3150800B000806F5DD0B0F5A06FE1D1002101A8FFF7F0
S3150800B0101DFDDCE7B0F5D06F6DD0B0F5E06F74D0EC
S3150800B020B0F5C06FD3D1002101A8FFF7BDFDCEE76B
S3150800B030B0F5206F73D00CD8B0F5106F60D0B0F5AE
S3150800B040186F67D0B0F5086FC1D101A8FFF754FD96
S3150800B050BDE7B0F5306F67D010D8B0F5286FB6D118
S3150800B06000213C4B0391D3F8703203F00303012B04
S3150800B07002D103A8FFF798FD039B35E0B0F5386FBA
S3150800B080D1D0B0F5406FA2D1002101A8FFF7ACFCE2
S3150800B0909DE72EF00DF8019099E72EF023F8FAE7D0
S3150800B0A02EF020F802464FF42070FFF79BFEB2FB05
S3150800B0B0F0F201928BE72DF0FBFF02462046F4E7FB
S3150800B0C0002101A8FFF73CFD81E7002101A8FFF751
S3150800B0D0E5FD7CE74FF0E02302911B695B0705D588
S3150800B0E02EF000F80290029B019370E703A902A8CC
S3150800B0F0FFF75AFDF7E7002101A8FFF71BFE66E7F1
S3150800B100002101A8FFF742FE61E7002101A8FFF729
S3150800B110EDFD5CE7002101A8FFF7CAFC57E700210F
S3150800B12001A8FFF765FD52E70A4BD3F8903203F002
S3150800B1300303012B04D0022B05D12DF0F3FFAAE758
S3150800B1402DF0E6FFA7E70846A5E7002101A8FFF7C7
S3150800B15081FD3CE70080005008B58020FFF7B2FE6D
S3150800B160034B98429EBF4FF48032024B1A6708BDC4
S3150800B170005A620200A000501FB503460020B3F52E
S3150800B180807F019000F0D18077D8582B68D8382B6B
S3150800B19006D8243B092B49D9019805B05DF804FB6C
S3150800B1A0393B1F2BF8D801A252F823F04DB30008FB
S3150800B1B099B1000899B1000899B1000857B3000879
S3150800B1C073B3000899B1000899B1000899B100084D
S3150800B1D099B1000899B1000899B1000899B1000819
S3150800B1E099B1000899B1000899B1000899B1000809
S3150800B1F099B1000899B100087DB300089FB200080C
S3150800B20099B1000899B1000899B10008E3B200089D
S3150800B21099B1000899B1000887B3000891B30008EE
S3150800B22069B3000805B3000805B30008092BB3D8AD
S3150800B23001A252F823F000BF9FB200089FB200088F
S3150800B2409FB200089FB200089FB2000899B1000893
S3150800B25021B3000899B100084DB30008BDB2000833
S3150800B260802B99D15C4B1B6F03F00703013B032B23
S3150800B27092D8DFE803F0534C4F51B3F5086F6FD0FF
S3150800B28021D8B3F5C06F61D00ED8B3F5A06F6BD0D7
S3150800B290B3F5B06F44D0B3F5806F7FF47DAF00206F
S3150800B2A001A9FFF74DFC77E7B3F5E06F61D0B3F579
S3150800B2B0F06F50D0B3F5D06F7FF46EAF002001A9C0
S3150800B2C0FFF738FD68E7B3F5286F61D00ED8B3F5F8
S3150800B2D0186F53D0B3F5206F55D0B3F5106F7FF4C0
S3150800B2E05BAF002001A9FFF751FD55E7B3F5306FB5
S3150800B2F060D0FFF451AFB3F5386F27D0B3F5406F80
S3150800B3007FF44AAF002001A9FFF76EFB44E7052347
S3150800B310019341E70323FBE70823F9E70223F7E74D
S3150800B320002001A9FFF7BAFC36E74FF0E0230290A8
S3150800B3301B695B0705D52DF0D5FE0C230393039BEC
S3150800B340E6E703A902A8FFF72FFCF8E7002001A902
S3150800B350FFF72AFC20E7002001A9FFF77BFC1BE783
S3150800B36001A9FFF7C9FB17E7002001A9FFF76EFB44
S3150800B37012E7002001A9FFF7B9FC0DE7002001A993
S3150800B380FFF796FB08E7002001A9FFF731FC03E762
S3150800B390114BD3F8703203F00303012B04D0022BB0
S3150800B3A00CBF14230023B3E7002103A8FFF7FCFB17
S3150800B3B01023ADE7084BD3F8903203F00303012BB3
S3150800B3C006D0022B02D12DF0ADFE07200190E3E650
S3150800B3D02DF09EFE0220F9E7008000504FF48012FF
S3150800B3E0034B5A664FF48032024B9A62704700BF8D
S3150800B3F0009000500050005AF8B504468020FFF728
S3150800B400BBFE032800F08A804FF48012564B574D36
S3150800B4105A6645F60E034FF0A062C5F88030544BC5
S3150800B4209A624FF4803203F580539A62AB6DDA0361
S3150800B430FCD4AE6D16F08046FBD1D4E900231B057B
S3150800B44043EA0263E27B4B481343227B4A4F43EAB3
S3150800B4500243627B43EA0233A27B43EA82132B61EF
S3150800B460AA69D4E904131B0643EA816302F0004281
S3150800B4701343A27E4FF440611343227E43EA0243FC
S3150800B480627E43EA0223AB614FF4006224F0DBFFDD
S3150800B4902B6AE17EE26923F00F0343EA8103002A5F
S3150800B4A03DD12B6294F8243094F82010AA6ADB0068
S3150800B4B043EA41133A40134394F821202F4943EABB
S3150800B4C0021343F48033294AAB62936D31EA0303CE
S3150800B4D0FBD14FF08071264881621369A56823F471
S3150800B4E0700343EA055313614FF00043836194F8F0
S3150800B4F022300BB9224B996294F823303BB94FF4AA
